:100000000C94B5000C94D2000C94D2000C94D20045
:100010000C94D2000C94D2000C94D2000C94D20018
:100020000C94D2000C94D2000C94D2000C940703D0
:100030000C94D2000C94D2000C94D2000C94D200F8
:100040000C94D2000C94D2000C94D2000C94D200E8
:100050000C94D2000C94D2000C94D2000C94D200D8
:100060000C94D2000C94D2006E616E00696E660032
:1000700000407A10F35A00A0724E18090010A5D45F
:10008000E80000E87648170000E40B54020000CABC
:100090009A3B000000E1F505000080969800000002
:1000A00040420F000000A086010000001027000061
:1000B0000000E803000000006400000000000A00E7
:1000C000000000000100000000002C76D888DC67EA
:1000D0004F0823DFC1DFAE59E1B1B796E5E3E45342
:1000E000C63AE651997696E8E6C28426EB898C9B5F
:1000F00062ED407C6FFCEFBC9C9F40F2BAA56FA5FF
:10010000F490055A2AF75C936B6CF9676DC11BFC80
:10011000E0E40D47FEF520E6B500D0ED902E03009B
:10012000943577050080841E080000204E0A0000E8
:1001300000C80C333333330F986E12831141EF8DA7
:100140002114893BE65516CFFEE6DB18D1844B38E7
:100150001BF77C1D901DA4BBE424203284725E2218
:100160008100C9F124ECA1E53D2711241FBECFEF8A
:10017000D8E0DEBFCDBF11E0A0E0B1E0ECEDF6E1EC
:1001800002C005900D92AC30B107D9F721E0ACE088
:10019000B1E001C01D92AD30B207E1F70E94040248
:1001A0000C946C0B0C94000080917C00806C80930C
:1001B0007C0087E080937A0080917A008068809349
:1001C0007A0080917A00806480937A0080917A002E
:1001D00086FDFCCF809178009091790008959091F0
:1001E0007C008F71907E892B80937C0080917A00B7
:1001F000806480937A0080917A0086FDFCCF8091A4
:1002000078009091790008950F931F93CF93DF9317
:10021000D82FC62F0E944B0390E021E030E0A901C7
:100220000D2E02C0440F551F0A94E2F70C2E02C097
:10023000220F331F0A94E2F78A01022B132BBC0111
:1002400060237123672BC9F44C2F6D2F8CEC0E9417
:10025000BC034C2F6D2F84E40E94BC036C2F8D2FA8
:100260000E94150490E080239123892B09F044C05B
:1002700085E08A95F1F70000F1CFBC010D2E02C098
:10028000759567950A94E2F760FD17C02823392316
:100290002130310591F46D2F8CEC0E9496036D2F67
:1002A00084E40E9496038D2F0E94E903811124C0EB
:1002B00085E08A95F1F70000F6CF9C010C2E02C074
:1002C000359527950A94E2F720FD16C084239523DF
:1002D000019791F46C2F8CEC0E9496036C2F84E4B0
:1002E0000E9496038C2F0E94E903811105C085E0CE
:1002F0008A95F1F70000F6CFDF91CF911F910F9112
:1003000008958F929F92AF92BF92CF92DF92EF9219
:10031000FF92F82E0E941603811169C06F2D8CEC9C
:100320000E9496036F2D8EEB0E9496038F2D0E94E4
:10033000E903C82ED12C8F2D0E94E9037601F82AFB
:10034000C7018827987FB701892B89F1609570953F
:1003500080E090E00E94170520E030E040E85FE395
:100360000E947C040E94E8046B017C0194E0769575
:1003700067959A95E1F780E090E00E9417054B01A0
:100380005C018FE0C822DD24B60180E090E00E948D
:10039000170520E030E040E85DE30E94A5059B01E1
:1003A000AC01C501B4010E947C04905824C084E0D3
:1003B000769567958A95E1F780E090E00E941705B1
:1003C0004B015C01C7018F709927BC0180E090E070
:1003D0000E94170520E030E040E85DE30E94A5059B
:1003E0009B01AC01C501B4010E947C0404C06AE910
:1003F00079EF89E794E4FF90EF90DF90CF90BF9082
:10040000AF909F908F900895CF93DF93CDB7DEB7D5
:100410006C970FB6F894DEBF0FBECDBF8091810000
:100420008860809381008091810085608093810045
:1004300088E09DE3909389008093880080916F000D
:10044000826080936F000E94D4000E9452047894CE
:1004500000E011E07E0187E0E80EF11C5E019DE006
:10046000A90EB11CDE015296B88FAF8BB5E0BA95DC
:10047000F1F7000080910C018130C1F780E00E940B
:10048000EF00BC0180E090E00E94170523ED36EFFD
:100490004FE25CE30E94A505962E872E782E692EEA
:1004A00081E00E94EF002C0181E00E94EF006C01CE
:1004B000B20180E090E00E94170526E735EC4CE899
:1004C0005AE30E94A5051B012C01B60180E090E0D3
:1004D0000E94170526E735EC4CE85AE30E94A50573
:1004E00020E030E040EF51E40E94A5059B01AC0103
:1004F000C201B1010E947C042CEF39EA41E85FE3BC
:100500000E94A5051B012C012DEC3CEC4CEC5DE39D
:10051000D401F3016B2F7A2F8F2F9E2F0E94A505F8
:100520009B01AC01C201B1010E947B04D62EC72EF3
:10053000582E492E61E080E00E94040180E00E9474
:1005400081019B01AC0181E0298F3A8F4B8F5C8F39
:100550000E948101362E272EBC015C8D5F934B8D4E
:100560004F933A8D3F93298D2F931F930F93FF92B3
:10057000EF92898F7A8F0E94EB0A7A8D7F93698D33
:100580006F932F923F921F930F9381E090E08C0F17
:100590009D1F9F938F930E94EB0A6F927F928F9281
:1005A0009F92A5E0B1E0BF93AF93BF92AF920E943C
:1005B000EB0A4F925F92CF92DF921F930F93988D29
:1005C0009F93AF89AF930E94EB0A0FB6F894DEBFFA
:1005D0000FBECDBFC7010E9467048AE091E00E9470
:1005E0006704CE0101960E9467048AE091E00E94B0
:1005F0006704CE0142960E9467048AE091E00E945F
:100600006704C5010E94730410920C012FCF1F9242
:100610000F920FB60F9211248F9381E080930C01FB
:100620008F910F900FBE0F901F90189545B121E04C
:1006300030E0082E01C0220F0A94EAF7522F50959D
:10064000452345B944B1422B44B9EFE7F7E0319770
:10065000F1F700C00000F89494B1952394B9E7E154
:10066000F1E03197F1F700C0000093B17894EFE822
:10067000F6E03197F1F700C0000043B150E002C04E
:10068000559547958A95E2F740FF03C0892F82234D
:10069000089581E00895782F45B121E030E0F90117
:1006A00001C0EE0F8A95EAF7062E01C0220F0A94C8
:1006B000EAF78E2F822B582F5095452345B944B128
:1006C000482B44B9AFE7B7E01197F1F700C000003D
:1006D000F89494B1952394B9A7E1B1E01197F1F79B
:1006E00000C0000093B198237894AFE8B6E011976A
:1006F000F1F700C0000043B150E002C055954795A6
:100700007A95E2F740FF02C0892F03C083B18E23A0
:10071000892B43B150E002C0559547956A95E2F7A1
:1007200040FD03C093B12923822B089521E030E0DE
:1007300001C0220F6A95EAF7322F209548E050E079
:10074000F89494B1932B94B99AE19A95F1F700C07B
:1007500080FF03C094B1922394B9E7E1F1E03197AF
:10076000F1F700C0000094B1922394B97894869573
:100770004150510929F7089521E030E0F90102C004
:10078000EE0FFF1F6A95E2F701C0220F4A95EAF7C4
:100790002E2B322F309548E050E0F89494B1922BF4
:1007A00094B9FAE1FA95F1F700C080FF03C094B163
:1007B000932394B9E7E1F1E03197F1F700C000002D
:1007C00094B1932394B9789486954150510929F7AF
:1007D000089521E030E002C0220F331F8A95E2F72E
:1007E000E22FF22FF09568E070E08FEFF89494B16B
:1007F0009E2B94B99AE19A95F1F700C094B19F238A
:1008000094B995E39A95F1F7000043B190EF9A956A
:10081000F1F77894869550E042235323452B09F055
:1008200080686150710911F70895F89474B141E03E
:1008300050E09A01082E01C0220F0A94EAF7062E12
:1008400001C0440F0A94EAF7922F942B792B74B9C4
:100850007AE17A95F1F700C074B19095972394B935
:1008600095E39A95F1F70000E3B1F0E0DF0102C0F3
:10087000B595A7958A95E2F7A0FD03C0822F8095D4
:1008800001C08FEF23B130E002C0359527956A95FE
:10089000E2F720FD02C040958423B0EFBA95F1F74E
:1008A0007894089587E68093C4001092C500109252
:1008B000C00086E08093C20088E08093C100089564
:1008C0009091C00095FFFCCF8093C6000895CF9310
:1008D000DF93EC018991882319F00E946004FACF1C
:1008E000DF91CF9108950E9467048DE00E9460041B
:1008F0008AE00C9460045058BB27AA270E949304F6
:100900000C946B050E945D0538F00E94640520F090
:1009100039F49F3F19F426F40C945A050EF4E0952F
:10092000E7FB0C945405E92F0E947C0558F3BA1795
:10093000620773078407950720F079F4A6F50C94F5
:100940009E050EF4E0950B2EBA2FA02D0B01B901D8
:1009500090010C01CA01A0011124FF27591B99F035
:10096000593F50F4503E68F11A16F040A22F232F41
:10097000342F4427585FF3CF469537952795A79591
:10098000F0405395C9F77EF41F16BA0B620B730B38
:10099000840BBAF09150A1F0FF0FBB1F661F771FA9
:1009A000881FC2F70EC0BA0F621F731F841F48F45E
:1009B000879577956795B795F7959E3F08F0B0CFE7
:1009C0009395880F08F09927EE0F979587950895CE
:1009D0000E94840588F09F5798F0B92F9927B75146
:1009E000B0F0E1F0660F771F881F991F1AF0BA95D3
:1009F000C9F714C0B13091F00E949E05B1E008958E
:100A00000C949E05672F782F8827B85F39F0B93F7F
:100A1000CCF3869577956795B395D9F73EF4909585
:100A20008095709561957F4F8F4F9F4F0895E89403
:100A300009C097FB3EF490958095709561957F4F26
:100A40008F4F9F4F9923A9F0F92F96E9BB279395D4
:100A5000F695879577956795B795F111F8CFFAF4E4
:100A6000BB0F11F460FF1BC06F5F7F4F8F4F9F4F15
:100A700016C0882311F096E911C0772321F09EE873
:100A8000872F762F05C0662371F096E8862F70E0D9
:100A900060E02AF09A95660F771F881FDAF7880FB3
:100AA0009695879597F9089597F99F6780E870E084
:100AB00060E008959FEF80EC089500240A941616D4
:100AC000170618060906089500240A94121613063C
:100AD000140605060895092E0394000C11F48823CA
:100AE00052F0BB0F40F4BF2B11F460FF04C06F5FE6
:100AF0007F4F8F4F9F4F089557FD9058440F551FBC
:100B000059F05F3F71F04795880F97FB991F61F08F
:100B10009F3F79F087950895121613061406551F06
:100B2000F2CF4695F1DF08C0161617061806991F72
:100B3000F1CF86957105610508940895E894BB2767
:100B400066277727CB0197F908950E94B8050C9482
:100B50006B050E945D0538F00E94640520F0952326
:100B600011F00C9454050C945A0511240C949F0513
:100B70000E947C0570F3959FC1F3950F50E0551FBF
:100B8000629FF001729FBB27F00DB11D639FAA27E2
:100B9000F00DB11DAA1F649F6627B00DA11D661F31
:100BA000829F2227B00DA11D621F739FB00DA11D52
:100BB000621F839FA00D611D221F749F3327A00D0C
:100BC000611D231F849F600D211D822F762F6A2FA8
:100BD00011249F5750409AF0F1F088234AF0EE0F0D
:100BE000FF1FBB1F661F771F881F91505040A9F73A
:100BF0009E3F510580F00C9454050C949F055F3F77
:100C0000E4F3983ED4F3869577956795B795F79575
:100C1000E7959F5FC1F7FE2B880F911D96958795ED
:100C200097F90895A3E1B0E0E8E1F6E00C948E09AD
:100C30006C014B012A01FC0117821682838181FF1E
:100C400043C3AE014F5F5F4F3A01F6019381F40158
:100C500093FD859193FF81914F01882309F430C35F
:100C6000853239F493FD859193FF81914F0185324F
:100C700039F4B60190E00E94B30A52012501E5CF94
:100C800010E0F12C20E02032A0F48B3269F030F437
:100C9000803259F0833269F420612CC08D3239F0F2
:100CA000803339F4216026C02260246023C028608C
:100CB00021C027FD27C030ED380F3A3078F426FFE9
:100CC00006C0FAE01F9F300D1124132F13C04AE015
:100CD000F49E300D1124F32E20620CC08E3221F4CC
:100CE00026FDEEC2206406C08C3611F4206802C0D6
:100CF000883641F4F40193FD859193FF81914F0172
:100D00008111C1CF9BEB980F933018F42061805E66
:100D100006C09BE9980F933008F071C12F7E26FF23
:100D200016E02F73322E853619F42064322E08C057
:100D3000863621F4F22FF0683F2E02C011111150B7
:100D400037FE07C01C3350F4EE24E394E10E27E095
:100D50000BC0183038F027E017E005C027E04CE35F
:100D6000E42E02C0212FE12C520144E0A40EB11C5C
:100D7000F20160817181828193810E2DA3010E9415
:100D8000C5092C01098100FF02C003FF07C031FC27
:100D900008C032FE09C030E2232E07C02DE2222E09
:100DA00004C09BE2292E01C0212C802F8C7019F0E9
:100DB000211068C2A8C237FE0FC0E40C04FF04C0B3
:100DC0008A81813309F4EA941E1474F5F8E0FE1563
:100DD00078F588E0E82E2CC036FC2AC0812F90E000
:100DE000841595059CF02CEF42162FEF520674F0F7
:100DF000432D4068342E0AC0E2E0F0E0EC0FFD1F06
:100E0000E10FF11D8081803319F411501111F4CFDD
:100E100037FE0EC0EE24E394E10E812F90E04816D9
:100E200059062CF4141904C0EE24E39401C010E018
:100E300037FE06C01414150434F4C201019605C02F
:100E400085E090E002C081E090E02110019611233E
:100E500031F0212F30E02F5F3F4F820F931F2F2D56
:100E600030E08217930714F4F81A01C0F12C832D97
:100E7000897049F4FF2039F0B60180E290E00E94C9
:100E8000B30AFA94F7CF222029F0B601822D90E020
:100E90000E94B30A33FC09C0FF2039F0B60180E399
:100EA00090E00E94B30AFA94F7CF37FE5AC0942D0F
:100EB000852D57FE02C090E080E0292E382E20E0DC
:100EC00030E0A2014E1951095D874C87A2014219F9
:100ED00053095F874E87612F70E044275527461BD3
:100EE000570B598B488B5FEF2516350649F4B60131
:100EF0008EE290E02A8B3B8B0E94B30A3B892A89C1
:100F0000421453046CF04C855D854215530544F43E
:100F1000EE85FF85E20FF31FE60DF71D818101C00D
:100F200080E351E0251A31082F5F3F4F48895989E6
:100F3000241635064CF0B60190E02A8B3B8B0E94BC
:100F4000B30A2A893B89CFCF2414350439F49A8116
:100F5000963318F4953311F404FF81E3B60190E061
:100F60004BC08A81813309F00F7EB60190E00E9468
:100F7000B30A111105C034FC18C085E690E017C013
:100F8000B6018EE290E00E94B30A82E0EE24E39480
:100F9000E80EF301E80FF11D8081B60190E00E9498
:100FA000B30A11508E2D91F7E6CF85E490E0B6019B
:100FB0000E94B30A57FC05C04114510439F404FFE0
:100FC00005C05194419451088DE201C08BE2B601F5
:100FD00090E00E94B30A80E39AE0491651042CF095
:100FE0008F5F5AE0451A5108F7CFB60190E00E9492
:100FF000B30AB601C201C0960E94B30A57C1833634
:1010000031F0833779F0833509F058C021C052019F
:10101000E2E0AE0EB11CF2018081898301E010E0B4
:10102000230114C05201F2E0AF0EB11CF201408066
:10103000518026FF03C0612F70E002C06FEF7FEF89
:10104000C2012A8B0E94A80A8C012A892F7715C019
:101050005201F2E0AF0EB11CF2014080518026FF38
:1010600003C0612F70E002C06FEF7FEFC2012A8BD7
:101070000E949D0A8C012A892068322E23FD1AC005
:101080008F2D90E008171907A8F4B60180E290E0D0
:101090000E94B30AFA94F4CFF20137FC859137FE2F
:1010A00081912F01B60190E00E94B30AF110FA94E9
:1010B000015011090115110579F7F8C0843611F0B6
:1010C000893659F5520127FF09C0F4E0AF0EB11C73
:1010D000F20160817181828193810AC0F2E0AF0EDA
:1010E000B11CF20160817181072E000C880B990BF5
:1010F0002F76322E97FF09C0909580957095619557
:101100007F4F8F4F9F4F2068322E2AE030E0A3019F
:101110000E940E0BE82EE6183FC0022F853721F4FF
:101120000F7E2AE030E01DC0097F8F3691F018F461
:10113000883559F0C5C0803719F0883711F0C0C024
:10114000006104FF09C0046007C024FF08C00660F6
:1011500006C028E030E005C020E130E002C020E118
:1011600032E0520107FF09C0F4E0AF0EB11CF201FA
:10117000608171818281938108C0F2E0AF0EB11C61
:10118000F2016081718180E090E0A3010E940E0B6A
:10119000E82EE6180F77302E36FE0BC0332D3E7F3B
:1011A000E11650F434FE0AC032FC08C0332D3E7EF6
:1011B00005C00E2D332D03C00E2D01C0012F34FFAD
:1011C0000CC0FE01EE0DF11D8081803311F4397EDB
:1011D00008C032FF05C00E5F04C0832F867809F077
:1011E0000F5F33FD13C030FF06C01E2D0F1518F41E
:1011F0001F0D101B0F2D0F1568F4B60180E290E053
:101200003B8B0E94B30A0F5F3B89F5CF0F1510F49B
:10121000F01A01C0F12C34FF12C0B60180E390E057
:101220003B8B0E94B30A3B8932FF17C031FD03C0DC
:1012300088E790E002C088E590E0B6010CC0832FFB
:10124000867859F031FF02C08BE201C080E237FDA1
:101250008DE2B60190E00E94B30AE11638F4B601BF
:1012600080E390E00E94B30A1150F7CFEA94F301B3
:10127000EE0DF11D8081B60190E00E94B30AE110ED
:10128000F5CF14C0F4E0FF1558F584E0F81A33FEEA
:101290001EC0211026C003FF2AC008E610E0F32D6F
:1012A000F0713F2EF8018491811124C0FF2009F4D0
:1012B000E5CCB60180E290E00E94B30AFA94F6CF42
:1012C000F6018681978126C08FEF9FEF23C0B6017C
:1012D00080E290E00E94B30AFA94F110F8CFD9CFDF
:1012E000F12CB601822D90E00E94B30AD4CF0CE617
:1012F00010E0D5CF31108052B60190E00E94B30AC1
:101300000F5F1F4FCFCF23E02F1510F483E0BECF28
:10131000F12CC1CF6396E2E10C94AA092F923F927F
:101320004F925F926F927F928F929F92AF92BF92F5
:10133000CF92DF92EF92FF920F931F93CF93DF93A1
:10134000CDB7DEB7CA1BDB0B0FB6F894DEBF0FBEFE
:10135000CDBF09942A88398848885F846E847D844B
:101360008C849B84AA84B984C884DF80EE80FD804D
:101370000C811B81AA81B981CE0FD11D0FB6F894C3
:10138000DEBF0FBECDBFED010895283008F027E085
:101390003327DA01990F311D87FD916000966105B1
:1013A000710539F432602E5F3D9330E32A95E1F701
:1013B00008959F3F30F080387105610509F03C5F6A
:1013C0003C5F3D93913008F08068911DDF93CF938F
:1013D0001F930F93FF92EF92192F987F9695E92F05
:1013E00096959695E90FFF27E653FF4F99273327E8
:1013F000EE24FF24A701E70105900894079428F440
:10140000360FE71EF81E491F511D660F771F881FF4
:10141000991F0694A1F70590079428F4E70EF81E8B
:10142000491F561FC11D770F881F991F661F0694FD
:10143000A1F70590079428F4F80E491F561FC71FFF
:10144000D11D880F991F661F771F0694A1F705907D
:10145000079420F4490F561FC71FD81F990F661F06
:10146000771F881F0694A9F784911095177041F093
:10147000D695C79557954795F794E7941A95C1F770
:10148000E0E7F0E06894159015913591659195919C
:1014900005907FE27395E118F10A430B560BC90BD7
:1014A000D009C0F7E10CF11E431F561FC91FD01D04
:1014B0007EF4703311F48A95E6CFE894015030F051
:1014C000080F0AF40027021708F4202F2395022F93
:1014D0007A3328F079E37D932A95E9F710C07D935C
:1014E0002A9589F6069497956795379517951794D9
:1014F000E118F10A430B560BC90BD00998F023955C
:101500007E9173957A3308F070E37C932013B8F7DB
:101510007E9170617D9330F0839571E37D9370E3EC
:101520002A95E1F71124EF90FF900F911F91CF9131
:10153000DF91992787FD90950895FC0105906150F2
:1015400070400110D8F7809590958E0F9F1F0895D9
:10155000FC016150704001900110D8F78095909582
:101560008E0F9F1F08950F931F93CF93DF93FB015F
:10157000238121FD03C08FEF9FEF28C022FF16C0FB
:1015800046815781248135814217530744F4A08155
:10159000B1819D012F5F3F4F318320838C93268142
:1015A00037812F5F3F4F3783268310C0EB01092F10
:1015B000182F0084F185E02D0995892BE1F68E81A5
:1015C0009F8101969F838E83812F902FDF91CF91F2
:1015D0001F910F910895AEE0B0E0E1EFFAE00C94B6
:1015E0009C090D891E8986E08C831A8309838FEFFD
:1015F0009FE79E838D83AE01475E5F4F6F89788D35
:10160000CE0101960E9412062F813885F801E20F63
:10161000F31F10822E96E4E00C94B809FA01AA2771
:10162000283051F1203181F1E8946F936E7F6E5F25
:101630007F4F8F4F9F4FAF4FB1E03ED0B4E03CD0D3
:10164000670F781F891F9A1FA11D680F791F8A1FB6
:10165000911DA11D6A0F711D811D911DA11D20D01D
:1016600009F468943F912AE0269F11243019305DD7
:101670003193DEF6CF010895462F4770405D4193C8
:10168000B3E00FD0C9F7F6CF462F4F70405D4A3315
:1016900018F0495D31FD4052419302D0A9F7EACFDD
:1016A000B4E0A6959795879577956795BA95C9F70C
:1016B00000976105710508959B01AC010A2E0694FF
:1016C0005795479537952795BA95C9F7620F731FB8
:0C16D000841F951FA01D0895F894FFCF03
:0C16DC00252E316600252E3266003B00F2
:00000001FF
